:020000040800F2
:1000000000000120911D0008C91C0008CF1C000839
:10001000D51C0008DB1C0008E11C000800000000E3
:10002000000000000000000000000000E71C0008C5
:10003000F31C000800000000FF1C00080B1D000856
:10004000D91D0008D91D0008D91D0008D91D0008B8
:10005000D91D0008D91D0008D91D0008D91D0008A8
:10006000D91D0008D91D0008D91D0008D91D000898
:10007000D91D0008D91D0008D91D0008D91D000888
:10008000D91D0008D91D0008191D0008D91D000838
:100090002D1D0008D91D0008D91D0008D91D000814
:1000A000D91D0008D91D0008D91D0008D91D000858
:1000B000D91D0008D91D0008D91D0008D91D000848
:1000C000D91D0008D91D0008D91D0008D91D000838
:1000D000D91D0008D91D0008D91D0008D91D000828
:1000E000D91D0008D91D0008D91D0008D91D000818
:1000F000D91D0008D91D0008D91D0008D91D000808
:10010000D91D0008D91D0008D91D0008D91D0008F7
:10011000D91D0008D91D0008D91D0008D91D0008E7
:10012000D91D0008D91D0008D91D0008D91D0008D7
:1001300000000000000000000000000000000000BF
:1001400000000000000000000000000000000000AF
:10015000000000000000000000000000000000009F
:10016000000000000000000000000000000000008F
:10017000000000000000000000000000000000007F
:10018000000000000000000000000000000000006F
:10019000000000000000000000000000000000005F
:1001A000000000000000000000000000000000004F
:1001B000000000000000000000000000000000003F
:1001C000000000000000000000000000000000002F
:1001D000000000000000000000000000000000001F
:0401E0005FF8E0F1F3
:1001E40010B5054C237833B9044B13B10448AFF36D
:1001F40000800123237010BD740000200000000063
:100204004445000808B5034B1BB103490348AFF349
:10021400008008BD0000000078000020444500086C
:1002240080B582B000AF786039607B683968184661
:1002340001F099F900BF0837BD4680BD80B582B092
:1002440000AF786039607B683968184601F0A2F91C
:1002540000BF0837BD4680BD80B584B000AF78606C
:100264000023FB737B68184601F0CEF903461A4657
:10027400FB7B934234BF01230023DBB2002B0ED05F
:100284007B68FA7B1146184601F0CAF903461A68DE
:10029400126818469047FB7B0133FB73E2E700BF0B
:1002A4001037BD4680BD80B582B000AF78607B68F2
:1002B400184601F0C3F97B6818460837BD4680BD6F
:1002C40080B582B000AF78607B681846FFF7EBFF1B
:1002D4007B6818460837BD4680BD000080B582B0F3
:1002E40000AF78607B681846FFF7DDFF7B68343326
:1002F40034220021184604F0D7F87B6834331846BA
:10030400FFF7DEFF7B6800229A667B680122DA66CB
:10031400034801F09DF97B6818460837BD4680BD47
:100324009000002080B500AF024800F090F800BFB4
:1003340080BD00BF9400002080B582B000AF78601B
:100344007B681B7983F00103DBB2002B07D07B6849
:1003540001221A717B6819460348FFF761FF00BF49
:100364000837BD4680BD00BF9400002080B582B030
:1003740000AF78607B681B79002B07D07B68002274
:100384001A717B6819460348FFF758FF00BF083706
:10039400BD4680BD9400002080B483B000AF786077
:1003A400044A7B681A607B6818460C37BD4680BCDB
:1003B400704700BFB845000880B582B000AF7860D0
:1003C4007B681846FFF7E8FF034A7B681A607B687E
:1003D40018460837BD4680BDAC45000880B582B0DC
:1003E40000AF786039607B681846FFF7E5FF094A7B
:1003F4007B681A607B6800229A607B6800221A710D
:100404003968786800F034F87B6818460837BD46C8
:1004140080BD00BFA045000880B483B000AF786001
:100424007B689B685A1C7B689A6000BF0C37BD468A
:1004340080BC704780B582B000AF78607B681B6871
:100444001846FFF709FF00BF0837BD4680BD80B5D9
:1004540082B000AF78607B6803F168007B68DB6E74
:100464007A68194601F00AF900BF0837BD4680BD15
:1004740080B582B000AF786039607B6800229A60F2
:100484007B683A68DA607B681846FFF755FF00BF5F
:100494000837BD4680BD80B483B000AF78607B6808
:1004A4009A687B68DB689A422CBF01230023DBB285
:1004B400002B04D07B6800229A60012300E0002313
:1004C40018460C37BD4680BC704780B582B000AF7B
:1004D40078607B6800229A607B681846FFF746FFC5
:1004E40000BF0837BD4680BD80B483B000AF7860DC
:1004F4007B689A687B68DB689A422CBF01230023DF
:10050400DBB218460C37BD4680BC704780B483B05C
:1005140000AF786039607B683A681A6000BF0C37B6
:10052400BD4680BC704780B582B000AF78607B6800
:100534001A687B681B681B681B681046984700BFD5
:100544000837BD4680BD000080B582B000AF78603A
:100554001C4801F077FF02211A4801F0BDFF034651
:100564009AB27B689A820121164801F0B5FF0346CE
:100574009AB27B68DA827B681A8B7B689B8A1946FD
:100584007B681B8BCB1A002B00DA03339B109BB2C6
:1005940013449AB27B681A837B685A8B7B68DB8A24
:1005A40019467B685B8BCB1A002B00DA03339B1054
:1005B4009BB213449AB27B685A8300BF0837BD4686
:1005C40080BD00BF0401002080B483B000AF786018
:1005D400044A7B681A607B6818460C37BD4680BCA9
:1005E400704700BF9445000880B582B000AF7860C2
:1005F40039607B681846FFF7E7FF094A7B681A6091
:100604007B683A685A603B68DB687A68114618462A
:10061400FFF77CFF7B6818460837BD4680BD00BFE6
:100624008845000880B582B000AF78607B685B685D
:100634001846FFF789FF00BF0837BD4680BD00009C
:1006440080B586B002AFF860B9601346FB80FB68E2
:100654001846FFF7B1FE334AFB681A60FB689A68D4
:10066400FB689A60FB68BA68DA60FB68FA881A82E9
:10067400FB6800225A82FB6800229A82FB680022EF
:10068400DA82FB6800221A83FB6800225A83FB6823
:100694001C33F9681846FFF7A7FFFB6803F1240031
:1006A400FB6803F11801002300934FF44B7340F2ED
:1006B4002A3201F004F8FB6803F13000FB6803F10F
:1006C40018010123009340F2E6234FF4397200F03D
:1006D400F6FFFB6803F13C00FB6803F11A010023F9
:1006E4000093FA23F02200F0EAFFFB6803F14800CC
:1006F400FB6803F11A01002300934FF45C734FF479
:10070400BE7200F0DCFFFB6800221A71FB88002B2C
:1007140003D0FB681846FFF70FFEFB681846103736
:10072400BD4680BD7C45000880B582B000AF7860CE
:100734007B685B8A5A1C91B27A6851827A68128A01
:1007440093422CBF01230023DBB2002B05D07B682E
:1007540000225A82034801F0E7FD00BF0837BD4676
:1007640080BD00BF0401002080B582B000AF786076
:100774007B681846FFF7E0FD00BF0837BD4680BD23
:1007840080B582B000AF78607B681846FFF7EEFD55
:1007940000BF0837BD4680BD80B483B000AF786029
:1007A4007B685B8B18460C37BD4680BC704780B4B1
:1007B40083B000AF78607B681B8B18460C37BD464E
:1007C40080BC704780B582B000AF78607B681B68DE
:1007D400044A934202D10448FFF7A5FE00BF08373C
:1007E400BD4680BD002801405C01002080B485B076
:1007F40000AFF860B9601346FB80FB68BA681A6002
:10080400FB68FA889A80FB6818461437BD4680BC9A
:10081400704780B582B000AF78607B6818687B68E9
:100824009B880122194603F02AF900BF0837BD4608
:1008340080BD80B582B000AF78607B6818687B6843
:100844009B880022194603F01AF900BF0837BD46F9
:1008540080BD80B582B000AF78607B681A687B6821
:100864009B881946104603F0F3F80346002B14BF87
:1008740001230023DBB218460837BD4680BD80B58E
:1008840082B000AF78607B681A687B689B881946E1
:10089400104603F00CF900BF0837BD4680BD80B593
:1008A40082B000AF78600B46FB70FB78002B03D05E
:1008B4007868FFF7AEFF02E07868FFF7BAFFFB78CD
:1008C40018460837BD4680BD80B582B000AF786059
:1008D4000B46FB70FB78002B02D07868FFF7CFFF44
:1008E40000BF0837BD4680BD80B582B000AF7860D8
:1008F4007868FFF7AEFF034618460837BD4680BD4B
:1009040080B582B000AF78600348FFF70CFE00BFEB
:100914000837BD4680BD00BF6001002080B584B0AB
:1009240000AFF860B9607A603B60FB68BA681A602F
:10093400FB687A685A60FB683A689A60FB68BA692F
:10094400DA60FB68FA691A61FB683A6A5A61FB6803
:100954007A6A9A61FB68BA6ADA61FB68FA6A1A62AF
:10096400FB683A6B5A62FB687A6B9A62FB68BA6BF3
:10097400DA62FB68FA6B1A63FB683A6C5A63FB68C9
:100984007A6C9A63FB68BA6CDA63FB68FA6C1A6473
:10099400FB683A6D5A64FB6848334FF4FA611846B1
:1009A400FFF71CFDFB68583340F2DC511846FFF793
:1009B40015FDFB6868334FF4FA711846FFF70EFD16
:1009C400FB68002283F87820FB68012283F87920F1
:1009D400FB68002283F87A200021386AFFF75FFF62
:1009E4000021786AFFF75BFFFB6818461037BD46A5
:1009F40080BDB0B582B000AF78607B6893F8793081
:100A0400002B09D07B6858331846FFF76DFD034669
:100A1400002B01D0012300E00023002B08D07B68C9
:100A240058331846FFF751FD7B68002283F879207C
:100A34007B689B6901211846FFF731FF7B685B687F
:100A4400184600F05CFE0346002B00F02E817B6804
:100A54005B687A68526893F8A230C3F34003D9B252
:100A640092F8AA3061F3C71382F8AA307B685B68F6
:100A74007A68526893F8A230C3F38003D9B292F82B
:100A8400AB3061F3000382F8AB307B6893F87930C4
:100A940083F00103DBB2002B00F077827B685B6894
:100AA40093F8A230C3F34003DBB2002B00F06D8255
:100AB4007B685B6893F8A230C3F38003DBB2002B3E
:100AC40000F063827B685B6893F8A230C3F3000391
:100AD400DBB2002B03D07B68012283F87A207B6889
:100AE40093F87A30002B51D07B681B69012118469A
:100AF400FFF7D5FE7B685B6901211846FFF7CFFE3F
:100B04007B6848331846FFF7E0FC7B681B683C337E
:100B1400184600F000FE0346002B0AD07B681B68D1
:100B24004833184600F0F7FD0346002B01D001239B
:100B340000E00023002B14D07B685A6892F8AA3096
:100B440043F0200382F8AA307B685A6892F8AA30EE
:100B54006FF3861382F8AA307B68002283F87A2028
:100B64001AE07B685A6892F8AA306FF3451382F84A
:100B7400AA307B685A6892F8AA3043F0400382F89E
:100B8400AA307B68002283F87A2005E07B685B69E1
:100B940000211846FFF783FE7B681B690121184674
:100BA400FFF77DFE7B681B691846FFF79DFE034631
:100BB400002B05D07B681B681846FFF7D5FD04E0C1
:100BC4007B681B681846FFF7DBFD7B685A687B6807
:100BD40093F87A1092F8AA3061F3041382F8AA30D9
:100BE4007B681B6803F130027B685C68104600F088
:100BF40092FD03461A4694F8AA3062F3820384F8FD
:100C0400AA307B681B6803F124027B685C68104689
:100C140000F081FD03461A4694F8AA3062F3C30338
:100C240084F8AA307B681B6803F13C027B685C682B
:100C3400104600F070FD03461A4694F8AA3062F399
:100C4400000384F8AA307B681B6803F148027B68C0
:100C54005C68104600F05FFD03461A4694F8AA301B
:100C640062F3410384F8AA307B681A687B685C6885
:100C74001046FFF791FD0346A4F8AC307B681A6870
:100C84007B685C681046FFF792FD0346A4F8AE301B
:100C94007B68DB6801211846FFF701FE7B689B68CF
:100CA40000211846FFF7FBFD6FE17B6893F879306C
:100CB40083F00103DBB2002B00F067817B68DB6902
:100CC4001846FFF711FE0346002B11D07B681B6901
:100CD40001211846FFF7E3FD7B685B690121184693
:100CE400FFF7DDFD7B6848331846FFF7EEFB05E0B0
:100CF4007B685B6900211846FFF7D1FD7B681B699F
:100D040001211846FFF7CBFD7B681B691846FFF7E6
:100D1400EBFD0346002B05D07B681B681846FFF7E4
:100D240023FD04E07B681B681846FFF729FD7B68F8
:100D34009C6B7B681B683033184600F0ECFC034660
:100D440019462046FFF7ABFD7B681C6C7B681B686B
:100D54002433184600F0DFFC034619462046FFF70B
:100D64009EFD7B689C6A7B681B683C33184600F0D8
:100D7400D2FC034619462046FFF791FD7B681C6BA5
:100D84007B681B684833184600F0C5FC03461946C7
:100D94002046FFF784FD7B685B6A1846FFF7A4FDD5
:100DA40003461C467B681B6A1846FFF79DFD0346F5
:100DB4009C4214BF01230023DBB2002B0AD07B68C2
:100DC4001B6A00211846FFF76AFD7B68012283F83D
:100DD40078207FE07B68DB6A1846FFF785FD0346D1
:100DE4001C467B689B6A1846FFF77EFD03469C42BF
:100DF40014BF01230023DBB2002B0AD07B689B6A5B
:100E040000211846FFF74BFD7B68012283F8782008
:100E140060E07B685B6B1846FFF766FD03461C4683
:100E24007B681B6B1846FFF75FFD03469C4214BFAB
:100E340001230023DBB2002B0AD07B681B6B00214B
:100E44001846FFF72CFD7B68012283F8782041E0E7
:100E54007B68DB6B1846FFF747FD03461C467B683F
:100E64009B6B1846FFF740FD03469C4214BF0123C9
:100E74000023DBB2002B0AD07B689B6B0021184651
:100E8400FFF70DFD7B68012283F8782022E07B6860
:100E94005B6C1846FFF728FD03461C467B681B6CF9
:100EA4001846FFF721FD03469C4214BF012300238B
:100EB400DBB2002B0AD07B681B6C00211846FFF7BD
:100EC400EEFC7B68012283F8782003E07B68002233
:100ED40083F878207B6893F8783083F00103DBB2E1
:100EE400002B2ED07B681D6A7B681B683033184644
:100EF40000F011FC03461C467B681B68243318462B
:100F040000F009FC03462343DCB27B681B683C33D6
:100F1400184600F000FC03462343DCB27B681B68E0
:100F24004833184600F0F7FB03462343DBB2002B9B
:100F34000CBF01230023DBB219462846FFF7AFFCA0
:100F44000BE07B681C6A7B6868331846FFF7A3FADA
:100F5400034619462046FFF7B7FC7B689A687B680E
:100F640093F8783019461046FFF799FC7B68DC68E3
:100F74007B689B681846FFF7B7FC034683F00103C0
:100F8400DBB219462046FFF78AFC00BF0837BD468E
:100F9400B0BD000090B5ADF5177D10AF00F01CFF9B
:100FA40000F0DAF800F00EFA00F0AEF900F040F9C3
:100FB40007F50473022262491846FFF717FC07F588
:100FC400027301225E491846FFF710FC07F500730F
:100FD40002225C491846FFF709FC07F5FC7304225A
:100FE40058491846FFF702FC07F5F87320225549C3
:100FF4001846FFF7FBFB07F5F47301225149184625
:10100400FFF7F4FB07F5F0734FF480624E4918467E
:10101400FFF7ECFB07F5EC734FF48052494918468F
:10102400FFF7E4FB07F5E8734FF4006245491846FF
:10103400FFF7DCFB07F5E473042244491846FFF785
:10104400D5FB07F5E07308223D491846FFF7CEFBB0
:1010540007F5DC7320223A491846FFF7C7FB07F56A
:10106400D873102236491846FFF7C0FB07F5D4732E
:10107400402233491846FFF7B9FB07F5D0738022A5
:101084002F491846FFF7B2FB07F5CC734FF40072F3
:101094002B491846FFF7AAFB07F5C8734FF4807273
:1010A40027491846FFF7A2FB07F59E734B222849F0
:1010B4001846FFF7C5FA07F5F47107F180006423B9
:1010C400244A00F061FB07F5047407F1800207F578
:1010D4009E71381D07F5C8730E9307F5CC730D93F5
:1010E40007F5D0730C9307F5D4730B9307F5D873F6
:1010F4000A9307F5DC73099307F5E073089307F582
:10110400E473079307F5E873069307F5EC73059307
:1011140007F5F073049307F5F873039307F5FC736D
:10112400029307F50073019307F5027300932346B6
:10113400FFF7F4FB3B1D1846FFF75BFCFAE700BF23
:10114400000C01400010014000080140001401405F
:101154005C0100206001002080B596B000AF07F16B
:10116400300328220021184603F09EF907F11C03DE
:1011740000221A605A609A60DA601A613B1D0022EC
:101184001A605A609A60DA601A615A6101233B63FB
:101194004FF480337B630023BB6301233B6402234E
:1011A400FB644FF480333B6500237B6507F1300318
:1011B400184602F095FC0346002B14BF01230023BC
:1011C400DBB2002B01D000F0C9F90F23FB6102232D
:1011D4003B6200237B624FF48063BB620023FB62AB
:1011E40007F11C030121184602F0FAFE0346002B06
:1011F40014BF01230023DBB2002B01D000F0AEF9B1
:1012040002237B604FF48043FB603B1D184603F0D0
:101214004FF80346002B14BF01230023DBB2002B3D
:1012240001D000F09BF900BF5837BD4680BD0000D7
:1012340080B588B000AF3B1D00221A605A609A60E6
:10124400DA601A615A619A612D4B2E4A1A602C4B4E
:101254004FF480729A602A4B00221A73284B0022A2
:101264001A75274B4FF46022DA61254B00225A602D
:10127400234B01221A61224800F0FEFD0346002B95
:1012840014BF01230023DBB2002B01D000F066F968
:1012940004237B600123BB6002237B610323FB6087
:1012A4004FF4E043FB6100237B7600233B7600236D
:1012B4003B613B1D1946124801F03CF90346002BE3
:1012C40014BF01230023DBB2002B01D000F046F948
:1012D40005237B600223BB603B1D1946084801F0CF
:1012E40029F90346002B14BF01230023DBB2002B92
:1012F40001D000F033F900BF2037BD4680BD00BFE8
:10130400040100200028014080B58AB000AF2B4BB7
:101314002B4A1A60294B04225A60284B00229A60F7
:10132400264B0022DA60254B4FF430221A61234BFE
:101334004FF400125A61214B00221A761F4B0122EE
:101344005A761E4B00229A761C4B0122DA761B4BEE
:1013540000221A77194B01225A77184801F096FA9D
:101364000346002B14BF01230023DBB2002B01D062
:1013740000F0F4F801233B6200237B6100233B610E
:1013840000233B6000237B600023BB600023FB60E1
:101394000023BB610123FB610E237B623B4619469C
:1013A400064801F06EFB054801F034FC02210348B5
:1013B40001F064FE00BF2837BD4680BD3401002023
:1013C4000064004080B588B000AF07F1100300222C
:1013D4001A605A609A60DA605B4B9B695A4A43F020
:1013E40020039361584B9B6903F02003FB60FB6867
:1013F400554B9B69544A43F010039361524B9B69CC
:1014040003F01003BB60BB684F4B9B694E4A43F02B
:10141400040393614C4B9B6903F004037B607B687A
:10142400494B9B69484A43F008039361464B9B69C7
:1014340003F008033B603B68002241F22701434864
:1014440002F01DFB002240F26321414802F017FB29
:1014540000224FF400413F4802F011FB0022042116
:101464003D4802F00CFB41F227033B6101237B6101
:101474000023BB610223FB6107F1100319463348C3
:1014840002F052F930233B6103237B6107F110031F
:101494001946304802F048F940F263233B610123C6
:1014A4007B610023BB610223FB6107F11003194632
:1014B400274802F039F94FF480633B6100237B61D4
:1014C4000023BB6107F110031946224802F02CF9EE
:1014D4004FF400433B6101237B610023BB61022382
:1014E400FB6107F1100319461A4802F01DF94FF485
:1014F40040633B6100237B610023BB6107F1100360
:101504001946124802F010F904233B6101237B6160
:101514000023BB610223FB6107F1100319460E4847
:1015240002F002F94FF4CC733B6100237B6100238A
:10153400BB6107F110031946054802F0F5F800BF36
:101544002037BD4680BD00BF00100240001001409E
:10155400000C0140000801400014014080B400AFB9
:1015640072B600BFFEE780B483B000AF7860396024
:101574007B681B6B0B2B08D87B681B6B591C7A6828
:1015840011637A68396842F8231000BF0C37BD46EE
:1015940080BC704780B485B000AF786039600023A8
:1015A400FB730023BB73BA7B7B681B6B9A420DD21F
:1015B400BA7B7B6853F822303A689A4202D1BB7BEB
:1015C400FB7303E0BB7B0133BB73ECE7FB7B7B73F7
:1015D4007A7B7B681B6B9A420CD27B7B591C7A7B8F
:1015E4007B6853F821107B6843F822107B7B01331E
:1015F4007B73EDE77B681B6B5A1E7B681A6300BF25
:101604001437BD4680BC704780B483B000AF7860A7
:101614007B681B6BDBB218460C37BD4680BC704739
:1016240080B483B000AF786039607B683A6853F85F
:10163400223018460C37BD4680BC704780B483B056
:1016440000AF78607B6818460C37BD4680BC704795
:1016540080B582B000AF786002F002FE0346064A0D
:10166400A2FB03239B09013B184602F050F800BF7C
:101674000837BD4680BD00BFD34D621080B584B02D
:1016840000AFF860B9607A60FB681B68591CFA689F
:101694001160BA68B3FBF2F2B96801FB02F29B1A5B
:1016A400002B0CBF01230023DBB2002B03D03B1D16
:1016B4001846FEF7BFFE00BF1037BD4680BD80B49C
:1016C40085B000AFF860B96011461A460B46FB803E
:1016D4001346BB80FB68BA681A60FB68FA889A8074
:1016E400FB68BA88DA80FB683A7E1A72FB680022CB
:1016F4005A72FB6818461437BD4680BC704780B4E4
:1017040083B000AF78607B6893F8A03018460C373C
:10171400BD4680BC704780B483B000AF78607B68FE
:101724001B7A002B14D07B681B681A887B68DB88C3
:101734009A4202D37B6800225A727B681B681A881B
:101744007B689B889A4217D87B6801225A7213E0FF
:101754007B681B681A887B68DB889A4202D37B68A3
:1017640001225A727B681B681A887B689B889A429C
:1017740002D87B6800225A727B685B7A18460C3761
:10178400BD4680BC7047000080B584B000AFF860EF
:10179400B9607A607B80FB681846FEF70DFE414A0B
:1017A400FB681A60FB68BA689A60FB687A68DA605A
:1017B400FB680122C3F89820FB680022A3F89C2050
:1017C400FB687A88A3F89E20FB68002283F8A02097
:1017D400FB68B433F968184600F066F8FB68002229
:1017E40083F8A920FB6893F8A920FB6883F8A82054
:1017F400FB6893F8A820FB6883F8A720FB6893F89C
:10180400A720FB6883F8A620FB6893F8A620FB6852
:1018140083F8A520FB6893F8A520FB6883F8A4202F
:10182400FB6893F8A420FB6883F8A320FB6893F873
:10183400A320FB6883F8A220FB68002283F8B12070
:10184400FB6893F8B120FB6883F8B020FB6893F839
:10185400B020FB6883F8AF20FB6893F8AF20FB68E7
:1018640083F8AE20FB6893F8AE20FB6883F8AD20C4
:10187400FB6893F8AD20FB6883F8AC20FB6893F811
:10188400AC20FB6883F8AB20FB6893F8AB20FB68C3
:1018940083F8AA20FB6800221A71FB6818461037E7
:1018A400BD4680BD6445000880B582B000AF786055
:1018B40039607B681846FEF787FE094A7B681A6020
:1018C4007B683A685A603B68DB687A681146184658
:1018D400FEF71CFE7B6818460837BD4680BD00BF76
:1018E4007045000880B582B000AF786039607B68CD
:1018F400012B07D13B684FF6FF72934202D1034894
:10190400FEF7ECFC00BF0837BD4680BD9400002004
:1019140080B582B000AF78607B68B3F89C305A1C05
:1019240091B27A68A2F89C107A68B2F89E20934229
:101934002CBF01230023DBB2002B06D07B680022DE
:10194400A3F89C20786800F01DF87B6893F8A23017
:10195400C3F3C003DBB2002B02D0786800F05EF85A
:1019640000BF0837BD4680BD80B582B000AF786047
:101974007B685B68184600F061F800BF0837BD4615
:1019840080BD000080B584B000AF78607B689B6840
:1019940001211846FEF783FF7B6808221A627B68E0
:1019A40000225A617B6800229A617B680022DA6116
:1019B4007B68D3F898207B681A617B68002283F8DF
:1019C40024200023FB607B681A6AFB689A420ED9C4
:1019D4007A68FB681344AA3319787A68FB6813445D
:1019E40044330A461A70FB680133FB60EBE77B68FB
:1019F40003F110017B6803F144027B685433064809
:101A040001F04CF97B689B6800211846FEF747FFFC
:101A140000BF1037BD4680BD3401002080B582B0C0
:101A240000AF78607B681846FEF7A0FC7B68002254
:101A340083F8A02000BF0837BD4680BD80B582B0C2
:101A440000AF78607B6803F128027B684C33002187
:101A5400234801F0F2F97B689B6A102B27D0172BDF
:101A64003AD17B6893F84C3003F00203002B14BF87
:101A740001230023D9B27A6892F8A23061F3820379
:101A840082F8A2307B6893F84C3003F04003002BBB
:101A940014BF01230023D9B27A6892F8A23061F30B
:101AA400410382F8A230786800F01CF814E07B68E7
:101AB40093F84C3003F00103002B14BF01230023DF
:101AC400D9B27A6892F8A23061F3000382F8A230A6
:101AD400786800F007F800BF00BF0837BD4680BD36
:101AE4003401002080B582B000AF78607B6893F841
:101AF400A03083F00103DBB2002B0CD07B68012201
:101B040083F8A0207B68B3F89E30002B03D07B6859
:101B14001846FEF711FC00BF0837BD4680BD80B5EE
:101B240000AF4FF6FF710120FFF7DCFE80BD00001F
:101B340080B485B000AF154B9B69144A43F0010390
:101B44009361124B9B6903F00103BB60BB680F4BAD
:101B5400DB690E4A43F08053D3610C4BDB6903F01D
:101B640080537B607B680A4B5B68FB60FB6823F0F7
:101B7400E063FB60FB6843F00073FB60044AFB68AE
:101B8400536000BF1437BD4680BC7047001002404C
:101B94000000014080B588B000AF786007F1100301
:101BA40000221A605A609A60DA607B681B68184ADF
:101BB400934229D1174B9B69164A43F4806393617E
:101BC400144B9B6903F48063FB60FB68114B9B69B6
:101BD400104A43F0040393610E4B9B6903F0040322
:101BE400BB60BB6830233B6103237B6107F11003B7
:101BF4001946094801F098FD00220021122001F045
:101C04005CFD122001F075FD00BF2037BD4680BD8C
:101C140000280140001002400008014080B588B04F
:101C240000AF786007F1100300221A605A609A60CE
:101C3400DA607B681B68204A934239D11F4BDB6909
:101C44001E4A43F00073D3611C4BDB6903F000733D
:101C5400FB60FB68194B9B69184A43F004039361CA
:101C6400164B9B6903F00403BB60BB684FF400632D
:101C74003B6100237B610023BB6107F1100319461C
:101C84000F4801F051FD4FF480533B6102237B6107
:101C94000323FB6107F110031946094801F044FDD1
:101CA40000220021142001F008FD142001F021FD80
:101CB40000BF2037BD4680BD0064004000100240D4
:101CC4000008014080B400AFFEE780B400AFFEE737
:101CD40080B400AFFEE780B400AFFEE780B400AF8D
:101CE400FEE780B400AF00BFBD4680BC704780B43F
:101CF40000AF00BFBD4680BC704780B400AF00BFDA
:101D0400BD4680BC704780B500AFFEF70BFB00BF3B
:101D140080BD000080B500AF024800F097F900BF15
:101D240080BD00BF0401002080B500AF024801F06F
:101D3400CAF900BF80BD00BF3401002080B400AFE9
:101D440001231846BD4680BC704780B582B000AF01
:101D54007860396002F07EFB034616221A604FF069
:101D6400FF3318460837BD4680BD80B582B000AF4A
:101D740078604FF0FF317868FFF7E7FFFEE780B443
:101D840000AF00BFBD4680BC70470000FFF7F7FFFF
:101D94000B480C490C4A002302E0D458C4500433C5
:101DA400C4188C42F9D3094A094C002301E013609A
:101DB4000432A242FBD302F053FBFFF7EBF8704767
:101DC4000000002074000020EC450008740000208E
:101DD4006C010020FEE7000080B500AF084B1B68D3
:101DE400074A43F010031360032001F05BFC0F204B
:101DF40000F008F8FFF79CFE0023184680BD00BFE2
:101E04000020024080B582B000AF7860124B1A689F
:101E1400124B1B7819464FF47A73B3FBF1F3B2FB00
:101E2400F3F3184601F073FC0346002B01D00123A1
:101E34000EE07B680F2B0AD8002279684FF0FF3040
:101E440001F03BFC064A7B681360002300E0012399
:101E540018460837BD4680BD000000200800002059
:101E64000400002080B400AF024B1B681846BD4636
:101E740080BC70476401002080B586B000AF7860F4
:101E84000023FB7500233B610023BB600023FB6040
:101E94007B68002B01D10123CEE07B689B68002B7B
:101EA4007B689B6A002B09D17B680022DA627B681D
:101EB400002283F824207868FFF76CFE786800F02D
:101EC400F1F90346FB757B689B6A03F01003002B52
:101ED40040F0A980FB7D002B40F0A5807B689B6AC5
:101EE40023F4885323F0020343F002027B689A62CE
:101EF4007B685A687B681B6851498B420AD17B68AE
:101F0400DB69B3F5402F02D07B68DB6904E04FF452
:101F1400002301E07B68DB691A437B681B7B5B0061
:101F24001343BA681343BB607B689B68B3F5807F37
:101F340003D07B689B68012B02D14FF4807300E0CF
:101F440000233A6913433B617B681B7D012B19D144
:101F54007B681B7B002B09D17B689B69013B5A037F
:101F64003B69134343F400633B610BE07B689B6A6A
:101F740043F020027B689A627B68DB6A43F00102CB
:101F84007B68DA627B681B685B6823F469417B6861
:101F94001B683A690A435A607B681B689A68294B34
:101FA40013407A681268B9680B4393607B689B6836
:101FB400B3F5807F03D07B689B68012B04D17B68D9
:101FC4001B69013B1B05FB607B681B68DB6A23F410
:101FD40070017B681B68FA680A43DA627B681B68D5
:101FE4009A68194B1340BA689A420BD17B68002255
:101FF400DA627B689B6A23F0030343F001027B6887
:102004009A6218E07B689B6A23F0120343F0100283
:102014007B689A627B68DB6A43F001027B68DA6260
:102024000123FB7507E07B689B6A43F010027B6821
:102034009A620123FB75FB7D18461837BD4680BDA7
:10204400003C0140FDF7E1FFFE0E1FFF80B584B0A8
:1020540000AF78607B681B681B68FB607B681B684B
:102064005B68BB60BB6803F02003002B3ED0FB68B9
:1020740003F00203002B39D07B689B6A03F0100342
:10208400002B05D17B689B6A43F400727B689A62DB
:102094007B681B689B6803F46023B3F5602F1DD134
:1020A4007B681B7B002B19D17B681B685A687B6893
:1020B4001B6822F020025A607B689B6A23F48072BA
:1020C4007B689A627B689B6A03F48053002B05D17A
:1020D4007B689B6A43F001027B689A62786800F02F
:1020E40074F87B681B686FF012021A60BB6803F017
:1020F4008003002B4DD0FB6803F00403002B48D071
:102104007B689B6A03F01003002B05D17B689B6AF4
:1021140043F400527B689A627B681B689B6803F4F3
:10212400E043B3F5E04F12D07B681B685B6803F4AF
:102134008063002B25D17B681B689B6803F46023B4
:10214400B3F5602F1DD17B681B7B002B19D17B68F5
:102154001B685A687B681B6822F080025A607B689F
:102164009B6A23F480527B689A627B689B6A03F4BF
:102174008073002B05D17B689B6A43F001027B6866
:102184009A627868FEF71EFB7B681B686FF00C028E
:102194001A60BB6803F04003002B12D0FB6803F005
:1021A4000103002B0DD07B689B6A43F480327B686B
:1021B4009A62786800F012F87B681B686FF001027D
:1021C4001A6000BF1037BD4680BD80B483B000AF35
:1021D400786000BF0C37BD4680BC704780B483B0C4
:1021E40000AF786000BF0C37BD4680BC704700006C
:1021F40080B584B000AF78600023FB600023BB602F
:102204007B681B689B6803F00103012B40D07B684B
:102214001B689A687B681B6842F001029A601F4B36
:102224001B681F4AA2FB03239B0CBB6002E0BB6834
:10223400013BBB60BB68002BF9D1FFF713FEF860CC
:102244001FE0FFF70FFE0246FB68D31A022B18D9D2
:102254007B681B689B6803F00103012B11D07B682A
:102264009B6A43F010027B689A627B68DB6A43F0E6
:1022740001027B68DA627B68002283F82420012350
:1022840007E07B681B689B6803F00103012BD8D12E
:10229400002318461037BD4680BD00BF0000002053
:1022A40083DE1B4380B584B000AF78600023FB60FD
:1022B4007B681B689B6803F00103012B2ED17B68AC
:1022C4001B689A687B681B6822F001029A60FFF71A
:1022D400C9FDF8601BE0FFF7C5FD0246FB68D31A91
:1022E400022B14D97B681B689B6803F00103012B44
:1022F4000DD17B689B6A43F010027B689A627B680D
:10230400DB6A43F001027B68DA62012307E07B6841
:102314001B689B6803F00103012BDCD000231846E3
:102324001037BD4680BD000080B584B000AF786032
:102334000023FB737B6893F82430012B01D1022323
:1023440078E07B68012283F824207868FFF750FF47
:102354000346FB73FB7B002B67D17B689B6A23F4EA
:10236400405323F0010343F480527B689A627B68F4
:102374001B68324A934205D1314B5B6803F47023E6
:10238400002B06D17B689B6A23F480127B689A62D7
:1023940005E07B689B6A43F480127B689A627B68E1
:1023A4009B6A03F48073002B02D17B680022DA62FB
:1023B4007B68002283F824207B681B686FF004028A
:1023C4001A607B681B685A687B681B6842F080024D
:1023D4005A607B681B685B6803F48063002B28D118
:1023E4007B681B689B6803F4E043B3F5E04F13D1AB
:1023F4007B681B68114A934205D1114B5B6803F457
:102404007023002B08D17B681B689A687B681B6863
:1024140042F402129A600CE07B681B689A687B683D
:102424001B6842F400429A6003E07B68002283F850
:102434002420FB7B18461037BD4680BD0028014090
:102444000024014080B584B000AF78600023FB73A2
:102454007B6893F82430012B01D1022338E07B6898
:10246400012283F824207B689B6A03F48073002B89
:1024740021D17B681B685B6803F48063002B1AD14D
:102484007868FFF70FFF0346FB73FB7B002B1AD121
:102494007B681B685A687B681B6822F080025A605C
:1024A4007B689B6A23F4885323F0010343F0010201
:1024B4007B689A6207E07B689B6A43F020027B6832
:1024C4009A620123FB737B68002283F82420FB7B40
:1024D40018461037BD4680BD80B485B000AF786023
:1024E40039600023FB603B68042B09D03B68042B54
:1024F40015D83B68022B0DD03B68032B05D00EE0AA
:102504007B681B689B6CFB600EE07B681B685B6CE4
:10251400FB6009E07B681B681B6CFB6004E07B6864
:102524001B68DB6BFB6000BFFB6818461437BD46B5
:1025340080BC704790B484B000AF786039600023E9
:10254400FB730023BB607B6893F82430012B01D11B
:1025540002238DE17B68012283F824207B689B6839
:10256400002B19D13B685B68012B0CD17B681B687D
:102574009B6B9B0D9B053A681268D1037A681268BD
:102584000B4393634FE07B689B6A43F020027B68B4
:102594009A620123FB7346E03B685A683B681B69F7
:1025A4009A422AD87B681B68996B3B685A683B68D7
:1025B4001B69D21A13469B0013440F331F2202FADD
:1025C40003F343F44013DB4319403B681B69013BAD
:1025D40018053B681C683B685A683B681B69D21A3B
:1025E40013469B0013440F3304FA03F340EA030237
:1025F4007B681B680A439A6315E07B681B68996BC8
:102604003B685A683B681B69D21A13469B00134403
:102614000F331F2202FA03F343F44013DA437B68B7
:102624001B680A409A637B681B689B6803F001037C
:10263400012B1CD07B681B689B6823F4E04323F0C8
:1026440001037A6812688D498A420AD13A6892690C
:10265400B2F5C04F02D03A68926904E04FF4804268
:1026640001E03A6892697968096813438B603B68B2
:102674005B7D012B15D13B689B69B3F5E04F08D115
:102684007B681B685A687B681B6842F480625A60E6
:1026940007E07B689B6A43F020027B689A6201230F
:1026A400FB733B681B7D012B14D13B685B7D002BC6
:1026B40008D17B681B685A687B681B6842F48052A7
:1026C4005A6007E07B689B6A43F020027B689A6249
:1026D4000123FB733B681B68092B1CD97B681B68AF
:1026E400D9683B681A6813465B0013441E3B0722F3
:1026F40002FA03F3DB4319403B6898683B681A68A5
:1027040013465B0013441E3B00FA03F27B681B680C
:102714000A43DA6019E07B681B6819693B681A6828
:1027240013465B001344072202FA03F3DB43194008
:102734003B6898683B681A6813465B00134400FAC8
:1027440003F27B681B680A431A613B681B68102B01
:1027540003D03B681B68112B07D17B681B689A6800
:102764007B681B6842F400029A603B685B68032B39
:1027740022D0032B2ED8012B02D0022B0ED029E01D
:102784007B681B685B6923F47F6323F00F033A685B
:10279400D1687A6812680B43536129E07B681B682F
:1027A4009B6923F47F6323F00F033A68D1687A6846
:1027B40012680B4393611BE07B681B68DB6923F49D
:1027C4007F6323F00F033A68D1687A6812680B4379
:1027D400D3610DE07B681B681B6A23F47F6323F0DD
:1027E4000F033A68D1687A6812680B43136200BF1A
:1027F4003B681B68102B03D03B681B68112B32D13C
:102804007B681B681E4A934225D17B681B689B68C2
:1028140003F40003002B26D17B681B689A687B684D
:102824001B6842F400029A603B681B68102B1AD1A3
:10283400144B1B68144AA2FB03239A0C13469B00F7
:1028440013445B00BB6002E0BB68013BBB60BB6838
:10285400002BF9D107E07B689B6A43F020027B6878
:102864009A620123FB737B68002283F82420FB7B9C
:1028740018461037BD4690BC704700BF003C01406D
:10288400002401400000002083DE1B4380B584B097
:1028940000AF78607B68002B01D10123EDE07B68F9
:1028A40093F82030DBB2002B02D17868FFF7B6F939
:1028B4007B681B681A687B681B6842F001021A6017
:1028C400FFF7D0FAF86012E0FFF7CCFA0246FB6893
:1028D400D31A0A2B0BD97B685B6A43F400327B68FA
:1028E4005A627B68052283F820200123C5E07B68B7
:1028F4001B685B6803F00103002BE5D07B681B6851
:102904001A687B681B6822F002021A60FFF7AAFAB1
:10291400F86012E0FFF7A6FA0246FB68D31A0A2B06
:102924000BD97B685B6A43F400327B685A627B682C
:10293400052283F8202001239FE07B681B685B68E5
:1029440003F00203002BE5D17B681B7E012B08D129
:102954007B681B681A687B681B6842F080021A60F7
:1029640007E07B681B681A687B681B6822F080029A
:102974001A607B685B7E012B08D17B681B681A6830
:102984007B681B6842F040021A6007E07B681B68A2
:102994001A687B681B6822F040021A607B689B7E81
:1029A400012B08D17B681B681A687B681B6842F09E
:1029B40020021A6007E07B681B681A687B681B6842
:1029C40022F020021A607B68DB7E012B08D17B6831
:1029D4001B681A687B681B6822F010021A6007E003
:1029E4007B681B681A687B681B6842F010021A60D7
:1029F4007B681B7F012B08D17B681B681A687B6886
:102A04001B6842F008021A6007E07B681B681A68BA
:102A14007B681B6822F008021A607B685B7F012BCD
:102A240008D17B681B681A687B681B6842F0040243
:102A34001A6007E07B681B681A687B681B6822F0D1
:102A440004021A607B689A687B68DB681A437B68B7
:102A54001B691A437B685B6942EA03017B685B6814
:102A64005A1E7B681B680A43DA617B6800225A623B
:102A74007B68012283F82020002318461037BD46C6
:102A840080BD80B487B000AF786039607B681B6814
:102A94007B617B6893F82030FB74FB7C012B03D0B3
:102AA400FB7C022B40F0AA807B69D3F8003243F010
:102AB40001027B69C3F800223B685B6903F01F03D2
:102AC400012202FA03F3FB607B69D3F81C22FB6842
:102AD400DB431A407B69C3F81C223B68DB69002B8B
:102AE40023D17B69D3F80C22FB68DB431A407B6952
:102AF400C3F80C223B68DB6819043B685B689BB233
:102B04003A68526919437B69483243F832103B688A
:102B14009B6819043B681B689AB23B685B690A436B
:102B240079694833DB000B445A603B68DB69012B4D
:102B340022D17B69D3F80C22FB681A437B69C3F862
:102B44000C223B681B6819043B685B689BB23A68BB
:102B5400526919437B69483243F832103B689B68D9
:102B640019043B68DB689AB23B685B690A4379697C
:102B74004833DB000B445A603B689B69002B09D146
:102B84007B69D3F80422FB68DB431A407B69C3F8F2
:102B9400042207E07B69D3F80422FB681A437B69AB
:102BA400C3F804223B681B69002B09D17B69D3F865
:102BB4001422FB68DB431A407B69C3F8142207E044
:102BC4007B69D3F81422FB681A437B69C3F8142287
:102BD4003B681B6A012B07D17B69D3F81C22FB6875
:102BE4001A437B69C3F81C227B69D3F8003223F0B3
:102BF40001027B69C3F80022002306E07B685B6A5C
:102C040043F480227B685A62012318461C37BD4670
:102C140080BC704780B584B000AF78607B6893F85F
:102C24002030DBB2012B2ED17B68022283F82020D6
:102C34007B681B681A687B681B6822F001021A60B3
:102C4400FFF710F9F86012E0FFF70CF90246FB6891
:102C5400D31A0A2B0BD97B685B6A43F400327B6876
:102C64005A627B68052283F82020012312E07B68E6
:102C74001B685B6803F00103002BE5D17B6800222D
:102C84005A62002306E07B685B6A43F400227B6897
:102C94005A62012318461037BD4680BD80B489B0FE
:102CA40000AFF860B9607A603B60FB6893F820304D
:102CB400FB77FB681B689B68BB61FB7F012B03D020
:102CC400FB7F022B40F0AD80BB6903F08063002BD7
:102CD4000AD1BB6903F00063002B05D1BB6903F083
:102CE4008053002B00F09580BB691B0E03F0030397
:102CF4007B6101227B699A403B681A60BB689B68D0
:102D0400002B0DD1BB681B685A05BB68DB68F968EA
:102D140009681A437B6918331B010B441A600FE0DE
:102D2400BB685B68DA00BB689B681A43BB68DB68F6
:102D3400F96809681A437B6918331B010B441A604C
:102D4400FB681968BB681A697B6918331B010B445B
:102D540004331A60BB681B7D012B11D1FB681A6810
:102D64007B6918331B01134404331B68FA68116828
:102D740043F480727B6918331B010B4404331A60DB
:102D84007B6807331B781A067B6806331B781B04A1
:102D94001A437B6805331B781B0213437A68043299
:102DA40012781046FA68116843EA00027B691B0135
:102DB4000B4403F5C6731A607B6803331B781A0649
:102DC4007B6802331B781B041A437B6801331B782E
:102DD4001B0213437A6812781046FA68116843EAB2
:102DE40000027B691B010B4403F5C4731A60FB6882
:102DF4001A687B6918331B0113441B68FA6811684D
:102E040043F001027B6918331B010B441A60002351
:102E14000EE0FB685B6A43F40012FB685A6201230C
:102E240006E0FB685B6A43F48022FB685A62012374
:102E340018462437BD4680BC704780B487B000AFC5
:102E4400F860B9607A603B60FB6893F82030FB75EA
:102E5400FB7D012B03D0FB7D022B40F00381BB687B
:102E6400002B0ED1FB681B68DB6803F00303002B07
:102E740016D1FB685B6A43F40012FB685A620123B3
:102E8400F7E0FB681B681B6903F00303002B07D101
:102E9400FB685B6A43F40012FB685A620123E8E0B2
:102EA400FB681A68BB681B331B0113441B6803F0DF
:102EB40004027B689A607B689B68002B0CD1FB68DA
:102EC4001A68BB681B331B0113441B685B0DC3F3F7
:102ED4000A027B681A600BE0FB681A68BB681B3344
:102EE4001B0113441B68DB0823F060427B685A60B3
:102EF400FB681A68BB681B331B0113441B6803F08F
:102F040002027B68DA60FB681A68BB681B331B012A
:102F1400134404331B6803F00803002B03D07B68BD
:102F240008221A610BE0FB681A68BB681B331B019B
:102F3400134404331B6803F00F027B681A61FB68B7
:102F44001A68BB681B331B01134404331B681B0A38
:102F5400DAB27B689A61FB681A68BB681B331B0191
:102F6400134404331B681B0C9AB27B685A61FB68D8
:102F74001A68BB681B01134403F5DC731B68DAB2DF
:102F84003B681A70FB681A68BB681B01134403F59D
:102F9400DC731B681A0A3B680133D2B21A70FB68EF
:102FA4001A68BB681B01134403F5DC731B681A0C15
:102FB4003B680233D2B21A70FB681A68BB681B0103
:102FC400134403F5DC731B681A0E3B680333D2B257
:102FD4001A70FB681A68BB681B01134403F5DE739F
:102FE4001A683B680433D2B21A70FB681A68BB686B
:102FF4001B01134403F5DE731B681A0A3B6805338F
:10300400D2B21A70FB681A68BB681B01134403F53B
:10301400DE731B681A0C3B680633D2B21A70FB6865
:103024001A68BB681B01134403F5DE731B681A0E90
:103034003B680733D2B21A70BB68002B08D1FB6817
:103044001B68DA68FB681B6842F02002DA6007E05C
:10305400FB681B681A69FB681B6842F020021A614E
:10306400002306E0FB685B6A43F48022FB685A6233
:10307400012318461C37BD4680BC704780B485B018
:1030840000AF786039607B6893F82030FB73FB7B7A
:10309400012B02D0FB7B022B09D17B681B68596989
:1030A4007B681B683A680A435A61002306E07B6820
:1030B4005B6A43F480227B685A6201231846143702
:1030C400BD4680BC704780B58AB000AF78600023ED
:1030D4007B627B681B685B693B627B681B685B681F
:1030E400FB617B681B689B68BB617B681B68DB6852
:1030F4007B617B681B681B693B617B681B689B6900
:10310400FB603B6A03F00103002B7CD0BB6903F036
:103114000103002B23D07B681B6801229A60BB69E2
:1031240003F00203002B03D0786800F083F916E063
:10313400BB6903F00403002B04D07B6A43F40063EF
:103144007B620CE0BB6903F00803002B04D07B6AAC
:1031540043F480537B6202E0786800F086F9BB692F
:1031640003F48073002B24D07B681B684FF48072B7
:103174009A60BB6903F40073002B03D0786800F0F5
:1031840062F916E0BB6903F48063002B04D07B6A08
:1031940043F400537B620CE0BB6903F40063002B2F
:1031A40004D07B6A43F480437B6202E0786800F0D9
:1031B40065F9BB6903F48033002B24D07B681B685A
:1031C4004FF480329A60BB6903F40033002B03D0C0
:1031D400786800F041F916E0BB6903F48023002B02
:1031E40004D07B6A43F400437B620CE0BB6903F4C4
:1031F4000023002B04D07B6A43F480337B6202E01B
:10320400786800F044F93B6A03F00803002B0CD003
:103214007B6903F01003002B07D07B6A43F400732F
:103224007B627B681B681022DA603B6A03F004034C
:10323400002B0BD07B6903F00803002B06D07B68BE
:103244001B680822DA60786800F02AF93B6A03F008
:103254000203002B09D07B681B68DB6803F00303BF
:10326400002B02D07868FDF74BFB3B6A03F0400368
:10327400002B0CD03B6903F01003002B07D07B6AB2
:1032840043F480637B627B681B6810221A613B6A8B
:1032940003F02003002B0BD03B6903F00803002B41
:1032A40006D07B681B6808221A61786800F00AF966
:1032B4003B6A03F01003002B09D07B681B681B6971
:1032C40003F00303002B02D0786800F0F2F83B6AA5
:1032D40003F40033002B0BD0FB6903F01003002B25
:1032E40006D07B681B6810225A60786800F0F3F8F7
:1032F4003B6A03F48033002B0BD0FB6903F0080313
:10330400002B06D07B681B6808225A60786800F09E
:10331400EBF83B6A03F40043002B7BD0FB6903F01A
:103324000403002B72D03B6A03F48073002B08D093
:10333400FB6803F00103002B03D07B6A43F0010315
:103344007B623B6A03F40073002B08D0FB6803F034
:103354000203002B03D07B6A43F002037B623B6AC7
:1033640003F48063002B08D0FB6803F00403002BF4
:1033740003D07B6A43F004037B623B6A03F400637B
:10338400002B43D0FB6803F07003002B3ED0FB6896
:1033940003F07003602B2BD0602B2ED8502B22D03F
:1033A400502B2AD8402B19D0402B26D8302B10D0A4
:1033B400302B22D8102B02D0202B05D01DE07B6AA5
:1033C40043F008037B6219E07B6A43F010037B62DD
:1033D40014E07B6A43F020037B620FE07B6A43F0D6
:1033E40040037B620AE07B6A43F080037B6205E072
:1033F4007B6A43F480737B6200E000BF7B681B68D8
:103404009A697B681B6822F070029A617B681B686A
:1034140004225A607B6A002B08D07B685A6A7B6A54
:103424001A437B685A62786800F067F800BF28374F
:10343400BD4680BD80B483B000AF786000BF0C3758
:10344400BD4680BC704780B483B000AF786000BFD5
:103454000C37BD4680BC704780B483B000AF786041
:1034640000BF0C37BD4680BC704780B483B000AF4A
:10347400786000BF0C37BD4680BC704780B483B011
:1034840000AF786000BF0C37BD4680BC704780B485
:1034940083B000AF786000BF0C37BD4680BC704776
:1034A40080B483B000AF786000BF0C37BD4680BCE9
:1034B400704780B483B000AF786000BF0C37BD465E
:1034C40080BC704780B483B000AF786000BF0C3715
:1034D400BD4680BC704780B483B000AF786000BF45
:1034E4000C37BD4680BC704780B483B000AF7860B1
:1034F40000BF0C37BD4680BC704780B483B000AFBA
:10350400786000BF0C37BD4680BC704780B485B07E
:1035140000AF78607B6803F00703FB600C4BDB684B
:10352400BB60BA684FF6FF031340BB60FB681A0226
:10353400BB68134343F0BF6343F40033BB60044AE6
:10354400BB68D36000BF1437BD4680BC704700BF62
:1035540000ED00E080B400AF044BDB681B0A03F00D
:1035640007031846BD4680BC704700BF00ED00E06D
:1035740080B483B000AF0346FB7197F90730002B8A
:103584000BDBFB7903F01F02064997F907305B094F
:10359400012000FA02F241F8232000BF0C37BD4697
:1035A40080BC704700E100E080B483B000AF034604
:1035B4003960FB7197F90730002B0ADB3B68DAB2FC
:1035C4000C4997F907301201D2B20B4483F8002357
:1035D4000AE03B68DAB20849FB7903F00F03043BC5
:1035E4001201D2B20B441A7600BF0C37BD4680BC20
:1035F400704700BF00E100E000ED00E080B489B056
:1036040000AFF860B9607A60FB6803F00703FB6100
:10361400FB69C3F10703042B28BF0423BB61FB69C7
:103624000433062B02D9FB69033B00E000237B61D2
:103634004FF0FF32BB6902FA03F3DA43BB681A4066
:103644007B699A404FF0FF317B6901FA03F3D94358
:103654007B680B40134318462437BD4680BC704733
:1036640080B582B000AF78607B68013BB3F1807FA6
:1036740001D301230FE00A4A7B68013B53600F2109
:103684004FF0FF30FFF790FF054B00229A60044B88
:1036940007221A60002318460837BD4680BD00BFC4
:1036A40010E000E080B582B000AF78607868FFF782
:1036B4002DFF00BF0837BD4680BD80B586B000AF82
:1036C4000346B9607A60FB7300237B61FFF742FF16
:1036D40078617A68B9687869FFF790FF024697F9CC
:1036E4000F3011461846FFF75FFF00BF1837BD467D
:1036F40080BD80B582B000AF0346FB7197F90730F7
:103704001846FFF735FF00BF0837BD4680BD80B5BA
:1037140082B000AF78607868FFF7A2FF03461846CE
:103724000837BD4680BD000080B48BB000AF786020
:10373400396000237B6200233B6279E101227B6ACA
:1037440002FA03F3FB613B681B68FA691340BB612F
:10375400BA69FB699A4240F068813B685B68A04A99
:1037640093425ED09E4A934275D89E4A934258D063
:103774009C4A93426FD89C4A934252D09A4A9342AD
:1037840069D89A4A93424CD0984A934263D8984A4B
:10379400934246D0964A93425DD8122B2AD8122BD4
:1037A40059D801A252F823F027380008013800083C
:1037B40013380008553800085B3800085B380008E7
:1037C4005B3800085B3800085B3800085B38000889
:1037D4005B3800085B3800085B3800085B38000879
:1037E4005B3800085B3800085B38000809380008BB
:1037F4001D3800087F4A934213D02CE03B68DB68F5
:103804003B6229E03B68DB6804333B6224E03B68AD
:10381400DB6808333B621FE03B68DB680C333B62C8
:103824001AE03B689B68002B02D104233B6213E03F
:103834003B689B68012B05D108233B627B68FA69CE
:103844001A6109E008233B627B68FA695A6103E064
:1038540000233B6200E000BFBB69FF2B01D87B68FB
:1038640001E07B6804337B61BB69FF2B02D87B6A70
:103874009B0002E07B6A083B9B003B617B691A6802
:103884000F213B6901FA03F3DB431A40396A3B69B0
:1038940001FA03F31A437B691A603B685B6803F01F
:1038A4008053002B00F0C180534B9B69524A43F074
:1038B40001039361504B9B6903F00103BB60BB6838
:1038C4004E4A7B6A9B08023352F82330FB607B6AC2
:1038D40003F003039B000F2202FA03F3DB43FA68AD
:1038E4001340FB607B68464A93421FD07B68454A7D
:1038F400934219D07B68444A934213D07B68434A6D
:1039040093420DD07B68424A934207D07B68414A78
:10391400934201D105230AE0062308E0042306E0CC
:10392400032304E0022302E0012300E000237A6A77
:1039340002F0030292009340FA681343FB602F499C
:103944007B6A9B080233FA6841F823203B685B6872
:1039540003F48013002B06D02F4B9A682E49BB69C1
:1039640013438B6006E02C4B9A68BB69DB432A49FE
:1039740013408B603B685B6803F40013002B06D094
:10398400254BDA682449BB691343CB6006E0224B1C
:10399400DA68BB69DB4320491340CB603B685B6852
:1039A40003F40033002B06D01B4B5A681A49BB6939
:1039B40013434B6006E0184B5A68BB69DB43164956
:1039C40013404B603B685B6803F48033002B25D0C5
:1039D400114B1A681049BB6913430B6025E000BF03
:1039E40000003210000031100000221000002110ED
:1039F40000001210000011100010024000000140ED
:103A040000080140000C0140001001400014014076
:103A140000180140001C0140000401400B4B1A68CF
:103A2400BB69DB43094913400B607B6A01337B624A
:103A34003B681A687B6A22FA03F3002B7FF47EAE9C
:103A440000BF00BF2C37BD4680BC70470004014056
:103A540080B485B000AF78600B467B807B689A6841
:103A64007B881340002B02D00123FB7301E0002369
:103A7400FB73FB7B18461437BD4680BC704780B48B
:103A840083B000AF78600B467B8013467B707B78F5
:103A9400002B03D07A887B681A6103E07B881A04C0
:103AA4007B681A6100BF0C37BD4680BC704780B488
:103AB40085B000AF78600B467B807B68DB68FB6079
:103AC4007A88FB6813401A04FB68D9437B880B404F
:103AD4001A437B681A6100BF1437BD4680BC704727
:103AE40080B586B000AF78607B68002B01D10123DC
:103AF4006CE27B681B6803F00103002B00F08780F5
:103B0400924B5B6803F00C03042B0CD08F4B5B6867
:103B140003F00C03082B12D18C4B5B6803F4803345
:103B2400B3F5803F0BD1894B1B6803F40033002BA2
:103B34006CD07B685B68002B68D1012346E27B680C
:103B44005B68B3F5803F06D1804B1B687F4A43F422
:103B5400803313602EE07B685B68002B0CD17B4BB9
:103B64001B687A4A23F480331360784B1B68774AC6
:103B740023F4802313601DE07B685B68B3F5A02FFA
:103B84000CD1724B1B68714A43F4802313606F4B52
:103B94001B686E4A43F4803313600BE06B4B1B6865
:103BA4006A4A23F480331360684B1B68674A23F422
:103BB400802313607B685B68002B13D0FEF752F9F7
:103BC400386108E0FEF74EF902463B69D31A642BCC
:103BD40001D90323FAE15D4B1B6803F40033002B86
:103BE400F0D014E0FEF73EF9386108E0FEF73AF948
:103BF40002463B69D31A642B01D90323E6E1534BF4
:103C04001B6803F40033002BF0D100E000BF7B6895
:103C14001B6803F00203002B63D04C4B5B6803F07A
:103C24000C03002B0BD0494B5B6803F00C03082BEF
:103C34001CD1464B5B6803F48033002B16D1434BF5
:103C44001B6803F00203002B05D07B681B69012B62
:103C540001D00123BAE13D4B1B6823F0F8027B68D5
:103C64005B69DB00394913430B603AE07B681B69ED
:103C7400002B20D0364B01221A60FEF7F3F838618E
:103C840008E0FEF7EFF802463B69D31A022B01D98C
:103C940003239BE12D4B1B6803F00203002BF0D0A0
:103CA4002A4B1B6823F0F8027B685B69DB00274919
:103CB40013430B6015E0264B00221A60FEF7D2F87E
:103CC400386108E0FEF7CEF802463B69D31A022BAE
:103CD40001D903237AE11D4B1B6803F00203002B77
:103CE400F0D17B681B6803F00803002B3AD07B6893
:103CF4009B69002B19D0174B01221A60FEF7B2F80A
:103D0400386108E0FEF7AEF802463B69D31A022B8D
:103D140001D903235AE10D4B5B6A03F00203002B24
:103D2400F0D0012000F0A6FA1CE00A4B00221A6031
:103D3400FEF798F838610FE0FEF794F802463B6905
:103D4400D31A022B08D9032340E100BF001002401C
:103D540000004242800442429E4B5B6A03F002032D
:103D6400002BE9D17B681B6803F00403002B00F0EF
:103D7400A6800023FB75974BDB6903F08053002B6F
:103D84000DD1944BDB69934A43F08053D361914B3B
:103D9400DB6903F08053BB60BB680123FB758E4B6A
:103DA4001B6803F48073002B18D18B4B1B688A4A61
:103DB40043F480731360FEF755F8386108E0FEF7AA
:103DC40051F802463B69D31A642B01D90323FDE061
:103DD400814B1B6803F48073002BF0D07B68DB6895
:103DE400012B06D17B4B1B6A7A4A43F00103136211
:103DF4002DE07B68DB68002B0CD1764B1B6A754A7F
:103E040023F001031362734B1B6A724A23F0040309
:103E140013621CE07B68DB68052B0CD16D4B1B6ABD
:103E24006C4A43F0040313626A4B1B6A694A43F009
:103E3400010313620BE0674B1B6A664A23F001031C
:103E44001362644B1B6A634A23F0040313627B68A6
:103E5400DB68002B15D0FEF705F838610AE0FEF7A1
:103E640001F802463B69D31A41F28832934201D9E0
:103E74000323ABE0574B1B6A03F00203002BEED085
:103E840014E0FDF7EFFF38610AE0FDF7EBFF0246AF
:103E94003B69D31A41F28832934201D9032395E056
:103EA4004C4B1B6A03F00203002BEED1FB7D012B6C
:103EB40005D1484BDB69474A23F08053D3617B68C3
:103EC400DB69002B00F08180424B5B6803F00C033C
:103ED400082B61D07B68DB69022B46D13F4B002263
:103EE4001A60FDF7BFFF386108E0FDF7BBFF02462B
:103EF4003B69D31A022B01D9032367E0354B1B68B6
:103F040003F00073002BF0D17B681B6AB3F5803F8C
:103F140008D1304B5B6823F400327B689B682D49E1
:103F240013434B602B4B5B6823F474127B68196A50
:103F34007B685B6A0B43274913434B60274B012281
:103F44001A60FDF78FFF386108E0FDF78BFF02462A
:103F54003B69D31A022B01D9032337E01D4B1B689D
:103F640003F00073002BF0D02FE01C4B00221A60EA
:103F7400FDF778FF386108E0FDF774FF02463B69FE
:103F8400D31A022B01D9032320E0124B1B6803F040
:103F94000073002BF0D118E07B68DB69012B01D1A1
:103FA400012313E00B4B5B68FB60FB6803F4803276
:103FB4007B681B6A9A4206D1FB6803F470127B6823
:103FC4005B6A9A4201D0012300E0002318461837A7
:103FD400BD4680BD001002400070004060004242B7
:103FE40080B584B000AF786039607B68002B01D164
:103FF4000123D0E06A4B1B6803F007033A689A4236
:1040040010D9674B1B6823F0070265493B681343CB
:104014000B60634B1B6803F007033A689A4201D0B4
:104024000123B8E07B681B6803F00203002B20D057
:104034007B681B6803F00403002B05D0594B5B68B5
:10404400584A43F4E06353607B681B6803F0080339
:10405400002B05D0534B5B68524A43F460535360C2
:10406400504B5B6823F0F0027B689B684D49134317
:104074004B607B681B6803F00103002B40D07B6816
:104084005B68012B07D1474B1B6803F40033002BFB
:1040940015D101237FE07B685B68022B07D1414B7C
:1040A4001B6803F00073002B09D1012373E03D4B1F
:1040B4001B6803F00203002B01D101236BE0394B91
:1040C4005B6823F003027B685B68364913434B60EB
:1040D400FDF7C8FEF8600AE0FDF7C4FE0246FB687F
:1040E400D31A41F28832934201D9032353E02D4B72
:1040F4005B6803F00C027B685B689B009A42EBD11F
:10410400274B1B6803F007033A689A4210D2244BEA
:104114001B6823F0070222493B6813430B60204BC2
:104124001B6803F007033A689A4201D0012332E086
:104134007B681B6803F00403002B08D0194B5B68F1
:1041440023F4E0627B68DB68164913434B607B68A9
:104154001B6803F00803002B09D0124B5B6823F49F
:1041640060527B681B69DB000E4913434B6000F00F
:1041740021F802460B4B5B681B0903F00F030A4945
:10418400CB5C22FA03F3094A1360094B1B681846F7
:10419400FDF738FE002318461037BD4680BD00BF2A
:1041A4000020024000100240BC450008000000202E
:1041B4000400002080B487B000AF0023FB6000231C
:1041C400BB6000237B6100237B6000233B611E4BAB
:1041D4005B68FB60FB6803F00C03042B02D0082B24
:1041E40003D027E0194B3B6127E0FB689B0C03F0ED
:1041F4000F03174AD35C7B60FB6803F48033002B06
:1042040010D0114B5B685B0C03F00103114AD35CC3
:10421400BB607B680D4A02FB03F2BB68B2FBF3F39D
:104224007B6104E07B680C4A02FB03F37B617B69DE
:104234003B6102E0094B3B6100BF3B6918461C37F8
:10424400BD4680BC704700BF001002400024F4004B
:10425400CC450008DC45000800093D0000127A0046
:1042640080B400AF024B1B681846BD4680BC704743
:104274000000002080B485B000AF78600A4B1B6852
:104284000A4AA2FB03235B0A7A6802FB03F3FB607E
:1042940000BFFB685A1EFA60002BF9D100BF00BFB3
:1042A4001437BD4680BC704700000020D34D621017
:1042B40080B586B000AF786000233B610023FB60CB
:1042C4007B681B6803F00103002B7DD00023FB7582
:1042D4004F4BDB6903F08053002B0DD14C4BDB6952
:1042E4004B4A43F08053D361494BDB6903F080535D
:1042F400BB60BB680123FB75464B1B6803F48073EA
:10430400002B18D1434B1B68424A43F4807313605B
:10431400FDF7A8FD386108E0FDF7A4FD02463B69FE
:10432400D31A642B01D903236DE03A4B1B6803F4C1
:104334008073002BF0D0364B1B6A03F44073FB6090
:10434400FB68002B2ED07B685B6803F44073FA682B
:104354009A4227D02E4B1B6A23F44073FB602E4BEA
:1043640001221A602C4B00221A60294AFB6813624E
:10437400FB6803F00103002B14D0FDF773FD3861D3
:104384000AE0FDF76FFD02463B69D31A41F2883219
:10439400934201D9032336E01D4B1B6A03F0020349
:1043A400002BEED01A4B1B6A23F440727B685B68C7
:1043B400174913430B62FB7D012B05D1144BDB69B9
:1043C400134A23F08053D3617B681B6803F0020314
:1043D400002B08D00E4B5B6823F440427B689B683B
:1043E4000B4913434B607B681B6803F01003002BDD
:1043F40008D0074B5B6823F480027B685B6904493F
:1044040013434B60002318461837BD4680BD00BFD8
:1044140000100240007000404004424208B500F021
:104424000DF808B5804700F00EF80000024B18683C
:10443400BFF35B8F704700BF0C00002008B5FFF787
:10444400F5FFFFF7EEFF062008B500F05DF8012048
:10445400FDF78BFC014B1868704700BF100000206B
:1044640070B500260C4D0D4C641BA410A64209D156
:1044740000F066F800260A4D0A4C641BA410A642FC
:1044840005D170BD55F8043B98470136EEE755F861
:10449400043B98470136F2E7E0450008E045000890
:1044A400E0450008E845000803460244934200D171
:1044B400704703F8011BF9E71F2938B504460D4678
:1044C40004D9162303604FF0FF3038BD426C12B19B
:1044D40052F821304BB9204600F030F82A46014604
:1044E4002046BDE8384000F017B8012B0AD0591C0B
:1044F40003D1162303600120E7E70024284642F88D
:10450400254098470020E0E7024B01461868FFF772
:10451400D3BF00BF1000002038B50023064D044669
:10452400084611462B60FDF710FC431C02D12B6892
:1045340003B1236038BD00BF68010020FDF7FEBB56
:10454400F8B500BFF8BC08BC9E467047F8B500BF7C
:08455400F8BC08BC9E4670474C
:10455C000000000000000000151900080000000019
:10456C00000000006D1900080000000000000000B1
:10457C002D070008000000000000000029060008BC
:10458C0000000000000000002144000800000000B2
:10459C00000000001D0400080000000000000000E6
:1045AC002144000800000000000000002144000825
:1045BC0000000000000000000102030406070809C7
:1045CC0002030405060708090A0B0C0D0E0F101048
:0445DC0001020000D8
:0845E00009020008231B00087A
:0445E800E5010008E1
:1045EC000024F40010000000010000004B440008FF
:1045FC00140000200000000000000000000000007B
:10460C00000000000000000000000000000000009E
:10461C00000000000000000000000000000000008E
:10462C00000000000000000000000000000000007E
:10463C00000000000000000000000000000000006E
:10464C00000000000000000000000000000000005E
:04465C00000000005A
:0400000508001D9141
:00000001FF
